:020000040800F2
:100000000080012051800008E97E0008EB7E000896
:10001000ED7E0008EF7E0008F17E00080000000081
:10002000000000000000000000000000F37E000857
:10003000F57E000800000000F77E0008F97E000849
:10004000A1800008A1800008A1800008A18000080C
:10005000A1800008A1800008A1800008A1800008FC
:10006000A1800008A1800008A1800008017F00088D
:10007000A1800008117F0008A1800008A18000086D
:10008000A1800008217F0008317F0008A1800008BE
:10009000A1800008A1800008A1800008A1800008BC
:1000A000A1800008A1800008A1800008A1800008AC
:1000B000A1800008417F0008517F0008A18000084E
:1000C000A1800008A1800008A1800008A18000088C
:1000D000A1800008A1800008617F0008A1800008BD
:1000E000A1800008A1800008A1800008A18000086C
:1000F000A1800008A1800008A1800008717F00088D
:10010000A1800008A1800008A1800008A18000084B
:10011000A1800008A1800008A1800008A18000083B
:10012000A1800008A1800008A1800008A18000082B
:10013000A1800008A1800008A1800008A18000081B
:10014000A1800008A1800008A1800008A18000080B
:10015000A1800008A1800008A1800008A1800008FB
:10016000A1800008A1800008A1800008A1800008EB
:10017000A1800008A1800008A18000080000000004
:08018000A1800008A180000825
:1001900010B5054C237833B9044B13B10448AFF3C1
:1001A00000800123237010BDD40100200000000056
:1001B0002C9F000808B5034B1BB103490348AFF35C
:1001C000008008BD00000000D80100202C9F00081E
:1001D00001F0FF01102A2BDB10F0070F08D010F8F8
:1001E000013B013A8B422DD010F0070F42B3F6D1FC
:1001F000F0B441EA012141EA014122F007047FF015
:1002000000070023F0E80256083C85EA010586EA6B
:10021000010685FA47F5A3FA87F586FA47F6A5FAA7
:1002200087F68EB9EED1F0BC01F0FF0102F00702B3
:1002300032B110F8013B013A83EA010313B1F8D15E
:100240000020704701387047002D06BF354603383F
:10025000073815F0010F07D1013015F4807F02BF78
:10026000013015F4C03F0130F0BC0138704700BFC9
:10027000034613F8012B002AFBD1181A01387047E6
:1002800081F0004102E000BF83F0004330B54FEA47
:1002900041044FEA430594EA050F08BF90EA020FB4
:1002A0001FBF54EA000C55EA020C7FEA645C7FEA47
:1002B000655C00F0E2804FEA5454D4EB5555B8BF6A
:1002C0006D420CDD2C4480EA020281EA030382EADB
:1002D000000083EA010180EA020281EA0303362D6D
:1002E00088BF30BD11F0004F4FEA01314FF4801C40
:1002F0004CEA113102D0404261EB410113F0004F52
:100300004FEA03334CEA133302D0524263EB430308
:1003100094EA050F00F0A780A4F10104D5F1200EA6
:100320000DDB02FA0EFC22FA05F2801841F1000101
:1003300003FA0EF2801843FA05F359410EE0A5F1D5
:1003400020050EF1200E012A03FA0EFC28BF4CF006
:10035000020C43FA05F3C01851EBE37101F00045BC
:1003600007D54FF0000EDCF1000C7EEB00006EEBC9
:100370000101B1F5801F1BD3B1F5001F0CD3490853
:100380005FEA30004FEA3C0C04F101044FEA4452AA
:1003900012F5800F80F09A80BCF1004F08BF5FEA31
:1003A000500C50F1000041EB045141EA050130BD11
:1003B0005FEA4C0C404141EB0101013C28BFB1F523
:1003C000801FE9D291F0000F04BF01460020B1FA6E
:1003D00081F308BF2033A3F10B03B3F120020CDA41
:1003E0000C3208DD02F1140CC2F10C0201FA0CF01F
:1003F00021FA02F10CE002F11402D8BFC2F1200C84
:1004000001FA02F120FA0CFCDCBF41EA0C01904039
:10041000E41AA2BF01EB0451294330BD6FEA040482
:100420001F3C1CDA0C340EDC04F11404C4F120026D
:1004300020FA04F001FA02F340EA030021FA04F37F
:1004400045EA030130BDC4F10C04C4F1200220FAD6
:1004500002F001FA04F340EA0300294630BD21FA14
:1004600004F0294630BD94F0000F83F4801306BFDA
:1004700081F480110134013D4EE77FEA645C18BFCE
:100480007FEA655C29D094EA050F08BF90EA020F65
:1004900005D054EA000C04BF1946104630BD91EA5D
:1004A000030F1EBF0021002030BD5FEA545C05D160
:1004B0004000494128BF41F0004130BD14F580049F
:1004C0003CBF01F5801130BD01F0004545F0FE4113
:1004D00041F470014FF0000030BD7FEA645C1ABF48
:1004E000194610467FEA655C1CBF0B46024650EA7F
:1004F000013406BF52EA033591EA030F41F40021AB
:1005000030BD00BF90F0000F04BF0021704730B530
:100510004FF4806404F132044FF000054FF0000105
:1005200050E700BF90F0000F04BF0021704730B5C6
:100530004FF4806404F1320410F0004548BF40429B
:100540004FF000013EE700BF42004FEAE2014FEAF0
:1005500031014FEA02701FBF12F07F4393F07F4FCB
:1005600081F06051704732F07F4208BF704793F0CE
:100570007F4F04BF41F40021704730B54FF46074E1
:1005800001F0004521F000411CE700BF50EA0102E4
:1005900008BF704730B54FF000050AE050EA01028D
:1005A00008BF704730B511F0004502D5404261EBFD
:1005B00041014FF4806404F132045FEA915C3FF43E
:1005C000D8AE4FF003025FEADC0C18BF03325FEADB
:1005D000DC0C18BF033202EBDC02C2F1200300FA8C
:1005E00003FC20FA02F001FA03FE40EA0E0021FAB1
:1005F00002F11444BDE600BF70B54FF0FF0C4CF49F
:10060000E06C1CEA11541DBF1CEA135594EA0C0F50
:1006100095EA0C0F00F0DEF82C4481EA030621EA8B
:100620004C5123EA4C5350EA013518BF52EA0335C6
:1006300041F4801143F4801338D0A0FB02CE4FF078
:100640000005E1FB02E506F00042E0FB03E54FF0A8
:100650000006E1FB03569CF0000F18BF4EF0010EA0
:10066000A4F1FF04B6F5007F64F5407404D25FEA9C
:100670004E0E6D4146EB060642EAC62141EA55514F
:100680004FEAC52040EA5E504FEACE2EB4F1FD0C91
:1006900088BFBCF5E06F1ED8BEF1004F08BF5FEA0F
:1006A000500E50F1000041EB045170BD06F00046C1
:1006B00046EA010140EA020081EA0301B4EB5C046E
:1006C000C2BFD4EB0C0541EA045170BD41F4801166
:1006D0004FF0000E013C00F3AB8014F1360FDEBF8B
:1006E000002001F0004170BDC4F10004203C35DA67
:1006F0000C341BDC04F11404C4F1200500FA05F3EA
:1007000020FA04F001FA05F240EA020001F000428A
:1007100021F0004110EBD37021FA04F642EB060100
:100720005EEA430E08BF20EAD37070BDC4F10C042A
:10073000C4F1200500FA04F320FA05F001FA04F2EE
:1007400040EA020001F0004110EBD37041F10001DA
:100750005EEA430E08BF20EAD37070BDC4F12005E5
:1007600000FA05F24EEA020E20FA04F301FA05F24D
:1007700043EA020321FA04F001F0004121FA04F2F5
:1007800020EA020000EBD3705EEA430E08BF20EAC5
:10079000D37070BD94F0000F0FD101F000464000FF
:1007A00041EB010111F4801F08BF013CF7D041EA81
:1007B000060195F0000F18BF704703F00046520085
:1007C00043EB030313F4801F08BF013DF7D043EA56
:1007D0000603704794EA0C0F0CEA135518BF95EA0C
:1007E0000C0F0CD050EA410618BF52EA4306D1D193
:1007F00081EA030101F000414FF0000070BD50EAB2
:10080000410606BF1046194652EA430619D094EA3B
:100810000C0F02D150EA013613D195EA0C0F05D125
:1008200052EA03361CBF104619460AD181EA030179
:1008300001F0004141F0FE4141F470014FF0000031
:1008400070BD41F0FE4141F4780170BD70B54FF0CC
:10085000FF0C4CF4E06C1CEA11541DBF1CEA13554C
:1008600094EA0C0F95EA0C0F00F0A7F8A4EB05042E
:1008700081EA030E52EA03354FEA013100F0888025
:100880004FEA03334FF0805545EA131343EA1263EE
:100890004FEA022245EA111545EA10654FEA0026A3
:1008A0000EF000419D4208BF964244F1FD0404F55C
:1008B000407402D25B084FEA3202B61A65EB0305B8
:1008C0005B084FEA32024FF480104FF4002CB6EB75
:1008D000020E75EB030E22BFB61A754640EA0C00F5
:1008E0005B084FEA3202B6EB020E75EB030E22BF35
:1008F000B61A754640EA5C005B084FEA3202B6EB76
:10090000020E75EB030E22BFB61A754640EA9C0034
:100910005B084FEA3202B6EB020E75EB030E22BF04
:10092000B61A754640EADC0055EA060E18D04FEAC2
:10093000051545EA16754FEA06164FEAC30343EA62
:1009400052734FEAC2025FEA1C1CC0D111F4801F2F
:100950000BD141EA00014FF000004FF0004CB6E728
:1009600011F4801F04BF01430020B4F1FD0C88BFC7
:10097000BCF5E06F3FF6AFAEB5EB030C04BFB6EBD2
:10098000020C5FEA500C50F1000041EB045170BDC5
:100990000EF0004E4EEA113114EB5C04C2BFD4EBF2
:1009A0000C0541EA045170BD41F480114FF0000E76
:1009B000013C90E645EA060E8DE60CEA135594EAF2
:1009C0000C0F08BF95EA0C0F3FF43BAF94EA0C0FF5
:1009D0000AD150EA01347FF434AF95EA0C0F7FF46A
:1009E00025AF104619462CE795EA0C0F06D152EABE
:1009F00003353FF4FDAE1046194622E750EA4106A2
:100A000018BF52EA43067FF4C5AE50EA41047FF4B2
:100A10000DAF52EA43057FF4EBAE12E74FF0FF3C17
:100A200006E000BF4FF0010C02E000BF4FF0010CE8
:100A30004DF804CD4FEA410C7FEA6C5C4FEA430C61
:100A400018BF7FEA6C5C1BD001B050EA410C0CBFB0
:100A500052EA430C91EA030F02BF90EA020F002012
:100A6000704710F1000F91EA030F58BF994208BF79
:100A700090422CBFD8176FEAE37040F00100704736
:100A80004FEA410C7FEA6C5C02D150EA013C07D18D
:100A90004FEA430C7FEA6C5CD6D152EA033CD3D0D8
:100AA0005DF8040B704700BF8446104662468C46D2
:100AB0001946634600E000BF01B5FFF7B7FF002805
:100AC00048BF10F1000F01BD4DF808EDFFF7F4FF2E
:100AD0000CBF012000205DF808FB00BF4DF808EDB9
:100AE000FFF7EAFF34BF012000205DF808FB00BFDC
:100AF0004DF808EDFFF7E0FF94BF012000205DF8FE
:100B000008FB00BF4DF808EDFFF7CEFF94BF0120B2
:100B100000205DF808FB00BF4DF808EDFFF7C4FFAB
:100B200034BF012000205DF808FB00BF4FEA410CF4
:100B30007FEA6C5C02D150EA013C0AD14FEA430CD7
:100B40007FEA6C5C02D152EA033C02D14FF0000014
:100B500070474FF0010070474FEA410212F5001252
:100B600015D211D56FF47873B3EB625212D94FEAF4
:100B7000C12343F0004343EA505311F0004F23FADE
:100B800002F018BF404270474FF00000704750EA33
:100B9000013005D111F0004008BF6FF000407047F0
:100BA0004FF00000704700BF53B94AB9002908BF91
:100BB00000281CBF4FF0FF314FF0FF3000F06AB942
:100BC000ADF1080C6DE904CE00F006F8DDF804E0A4
:100BD000DDE9022304B070472DE9F047089D0C467B
:100BE000002B4ED194468C458646B2FA82F262D9E9
:100BF0004AB1C2F12003914020FA03F30CFA02FC3F
:100C0000194300FA02FE4FEA1C471FFA8CF6B1FBAB
:100C1000F7F44FEA1E4307FB141143EA014304FBB8
:100C200006F199420AD91CEB030304F1FF3080F06E
:100C30001281994240F20F81023C6344591A1FFA13
:100C40008EF3B1FBF7F007FB101143EA014300FB01
:100C500006F69E420AD91CEB030300F1FF3180F037
:100C6000FC809E4240F2F980634402389B1B40EABC
:100C7000044000211DB1D3400022C5E90032BDE887
:100C8000F0878B4205D90DB1C5E900010021084666
:100C9000F5E7B3FA83F1002946D1A34202D390428B
:100CA000C0F0F080861A64EB03030120002DE6D02B
:100CB000C5E90063E3E7002A40F09080A1EB0C0453
:100CC0004FEA1C481FFA8CF70121B4FBF8F64FEAF3
:100CD0001E4308FB164443EA044307FB06F0984210
:100CE00008D91CEB030306F1FF3402D2984200F24C
:100CF000CD8026461C1A1FFA8EF3B4FBF8F008FBD1
:100D0000104443EA044300FB07F79F4208D91CEB59
:100D1000030300F1FF3402D29F4200F2B08020466C
:100D2000DB1B40EA0640A5E7C1F120068B4022FA12
:100D300006F71F4320FA06FC04FA01F343EA0C030A
:100D4000F44000FA01F8380C4FEA1349B4FBF0FE06
:100D50001FFA87FC00FB1E4449EA04440EFB0CF911
:100D6000A14502FA01F20AD93C190EF1FF3A80F0CE
:100D70008480A14540F28180AEF1020E3C44A4EB98
:100D800009041FFA83F9B4FBF0F300FB134449EAAA
:100D9000044403FB0CFCA44507D93C1903F1FF30C4
:100DA00067D2A44565D9023B3C4443EA0E40A0FB10
:100DB0000293A4EB0C049C42CE469C4651D34ED0E9
:100DC00055B1B8EB0E0364EB0C0404FA06F6CB4005
:100DD0001E43CC40C5E90064002150E7C2F1200366
:100DE00020FA03F10CFA02FC24FA03F394400C43BA
:100DF0004FEA1C4800FA02FE1FFA8CF7B3FBF8F02A
:100E000008FB1031230C43EA014300FB07F1994230
:100E100008D91CEB030300F1FF362CD299422AD9E2
:100E2000023863445B1AA4B2B3FBF8F108FB113338
:100E300044EA034401FB07F3A34208D91CEB040472
:100E400001F1FF3613D2A34211D902396444E41AE6
:100E500041EA004139E70446F0E6084606E7C8459E
:100E6000AED2B9EB020E63EB070C0138A8E73146AE
:100E7000EDE7034699E73046D4E7D6467FE763447B
:100E800002384DE70646234608460FE7023E634414
:100E900030E700BF704700BF2DE9FF4757EC106BEC
:100EA000002F0C4619463B46BBBF07F100431F46C7
:100EB00000232D230B700D9BDDF830A0914623F00D
:100EC0002008BCBF32461646B8F1460F05D0B8F12F
:100ED000450F00D10134022100E0032103AB01934F
:100EE00002AB009347EC106B5346224600F034FEF1
:100EF000B8F1470F054619D119F0010F0ED000EBDC
:100F000004090022002330463946FFF7DDFD08B111
:100F1000CDF80C903022039B4B451ED3039B0E9AB9
:100F20005B1B2846136004B0BDE8F087B8F1460F9C
:100F300000EB0409E5D10378302B0AD1002200230D
:100F400030463946FFF7C0FD18B9C4F10104CAF8AC
:100F50000040DAF800309944D3E7591C03911A7025
:100F6000D9E7F7B50029BABF49422D232B23092918
:100F70000270437029DD0DF107031D460A271A464A
:100F8000B1FBF7F607FB1614303402F8014C0C469F
:100F9000632C03F1FF333146F1DC3031941E03F84A
:100FA000011C411C2346AB420AD30DF109039B1AD5
:100FB000AC4288BF002302330344181A03B0F0BDCB
:100FC00013F8016B01F8016FEDE7302330318370C6
:100FD000C170031DF1E700002DE9F04F8DB00C4604
:100FE000DDF8588016461F46054600F0BBFC036836
:100FF00004931846FFF73CF900230A93D8F8003011
:101000000590073323F0070303F1080294F818A0B2
:10101000D4F800B0C8F80020D3E9008929F00043D3
:101020000793CDF81880C4E91289DDE906019C4BCD
:101030004FF0FF32FFF77AFD70BBDDE90601984BF8
:101040004FF0FF32FFF754FD30BB00220023404633
:101050004946FFF743FD10B12D2384F84330914AF0
:10106000914BBAF1470F94BF9046984603232361F2
:101070002BF0040323604FF00009009733460BAABE
:101080002146284600F0D2F9013040F08D804FF023
:10109000FF300DB0BDE8F08F42464B464046494612
:1010A000FFF744FD40B14B46002BBCBF2D2384F815
:1010B00043307E4A7E4BD4E763680AF0DF02069233
:1010C0005A1C3BD1062363604BF4806200232260EC
:1010D00003930AABCDE901A309AB0093616849EC26
:1010E000108B0DF123032846FFF7D6FE069B0999C6
:1010F000472B804629D1C81C02DB6368994241DD39
:10110000AAF1020A5FFA8AFA0139524604F1500044
:101110000991FFF726FF0A9A1318012A81462361D5
:1011200002DC2268D20701D5013323619DF8233008
:10113000002BA2D02D2384F843309EE7069A472A3D
:10114000C2D1002BC0D10123BDE7BAF1650FDBD9B5
:10115000BAF1660F18D1002963680BDD216113B95C
:101160002268D00702D501330B442361A1654FF0FB
:101170000009DBE713B92268D20701D50233F4E78F
:101180000123F2E74FF0670A0A9B994205DB2368C7
:101190002161D807EAD54B1CE7E70029D4BFC1F18C
:1011A000020201221344E0E723685A0507D42369A9
:1011B000424631462846B84701302BD167E7BAF19D
:1011C000650F40F2DD80D4E9120100220023FFF711
:1011D0007BFC002833D0374A012331462846B847E4
:1011E00001303FF454AFDDE90938434502DB2368A1
:1011F000D8070FD5DDE9042331462846B84701302A
:101200003FF445AF4FF0000908F1FF3804F11A0A26
:10121000C84509DC23689B0700F10381E0680B9B4C
:101220009842B8BF184634E7012352463146284653
:10123000B84701303FF42BAF09F10109E8E7099BFA
:10124000002B39DC1B4A012331462846B8470130C0
:101250003FF41DAFDDE9093959EA030302D12368E0
:10126000D907D7D5DDE9042331462846B8470130F0
:101270003FF40DAF4FF0000A04F11A0B099B5B42DB
:10128000534501DC4B4693E701235A463146284635
:10129000B84701303FF4FBAE0AF1010AEEE700BFA8
:1012A000FFFFEF7F489F00084C9F0008509F0008F9
:1012B000549F0008589F0008A36DDDF828A05345EF
:1012C000A8BF5346002B994636DC4FF0000B29EAA5
:1012D000E97904F11A02A36D0693A3EB09035B45B8
:1012E00031DC099B9A453ADC2368DA0737D4099B3D
:1012F000AAEB0309069BAAEB03039945A8BF9946ED
:10130000B9F1000F33DC4FF0000829EAE97904F164
:101310001A0B099BAAEB0303A3EB090343457FF7D1
:1013200079AF01235A4631462846B84701303FF489
:10133000AEAE08F10108ECE7424631462846B84710
:101340000130C2D1A3E60123314628460692B847B0
:1013500001303FF49CAE069A0BF1010BBBE7DDE9CF
:10136000042331462846B8470130C0D18FE6069A9B
:101370004B46424431462846B8470130C3D186E641
:10138000DDF828A0BAF1010F01DCDB0736D5012317
:10139000424631462846B84701303FF478AEDDE991
:1013A000042331462846B84701303FF470AED4E9F3
:1013B0001201002200230AF1FF3AFFF785FBC0B9B2
:1013C000534608F1010231462846B84701300CD196
:1013D0005DE601235A4631462846B84701303FF4BE
:1013E00056AE08F10108D045F3DB4B4604F150023C
:1013F000DFE64FF0000804F11A0BF4E70123424640
:10140000E1E701234A4631462846B84701303FF418
:101410003EAE08F10108E3680B995B1A4345F0DC26
:10142000FCE64FF0000804F11909F4E72DE9F04754
:10143000164698468A680B69DDF820909342B8BF3B
:101440001346336091F8432007460C460AB1013336
:1014500033602368990642BF3368023333602568DE
:1014600015F0060506D104F1190AE36832689B1AE3
:10147000AB4226DC94F843302268003B18BF0123BE
:1014800092062BD404F1430241463846C847013046
:101490001ED02368226903F00603042B02BFE5680F
:1014A0003368ED1AA3680CBF25EAE5750025934261
:1014B000C4BF9B1AED1800261A34B5421AD1002079
:1014C00008E00123524641463846C847013003D15F
:1014D0004FF0FF30BDE8F0870135C6E7E1185A1C30
:1014E000302081F84300224494F8451082F84310DC
:1014F0000233C7E70123224641463846C847013038
:10150000E6D00136D9E700002DE9FF470F7E0C9E9B
:10151000782F914680460C469A4601F1430207D83F
:10152000622F0AD8002F00F0D280582F00F0B98027
:1015300004F1420684F842703AE0A7F16303152BE8
:10154000F6D801A151F823F0A1150008B51500083F
:101550003115000831150008311500083115000853
:10156000B5150008311500083115000831150008BF
:1015700031150008B5160008DF1500086F160008C1
:101580003115000831150008D7160008311500087C
:10159000DF1500083115000831150008771600081E
:1015A00033681A1D1B68326004F1420684F8423029
:1015B00001239DE033682068191D3160060601D5BE
:1015C0001D6803E04506FBD5B3F90050002D03DA92
:1015D0002D236D4284F8433059480A2311E02168D5
:1015E0003368080653F8045B02D4490648BFADB21D
:1015F0006F2F5348336014BF0A230823002184F857
:1016000043106668A660002EA2BF216821F0040185
:1016100021600DB9002E4BD01646B5FBF3F103FB4C
:101620001157C75D06F8017D2F46BB420D46F4D920
:10163000082B0BD12368DF0708D52369616899421D
:10164000DEBF302306F8013C06F1FF36921B226113
:10165000CDF800A04B4603AA21464046FFF7E6FE20
:1016600001304AD14FF0FF3004B0BDE8F087236865
:1016700043F0200323603348782784F845702368BB
:1016800031681F0651F8045B02D45F0648BFADB253
:101690003160D90744BF43F0200323601DB11023FC
:1016A000ACE72748E9E7236823F020032360F6E747
:1016B0001646BDE7336825686169181D30602E063F
:1016C0001B6801D5196002E06806FBD5198000236C
:1016D00023611646BCE733681A1D32601E686268D3
:1016E00000213046FEF774FD08B1801B606063681E
:1016F0002361002384F84330AAE723693246494630
:101700004046D0470130ADD023689B0713D4E06832
:10171000039B9842B8BF1846A6E7012332464946C4
:101720004046D04701309DD00135E36803995B1AEC
:10173000AB42F2DCEBE7002504F11906F5E700BF48
:101740005A9F00086B9F0008002310B50446C0E9AB
:101750000033C0E90433836081814366C2818361C1
:10176000194608225C3000F0F4F80D4B63620D4B13
:10177000A3620D4BE3620D4B23630D4B24629C422D
:1017800006D003F16802944202D0D0339C4205D1C6
:1017900004F15800BDE8104000F052B910BD00BF80
:1017A000CD180008EF180008271900084B19000889
:1017B000F0010020024A0349034800F069B800BF65
:1017C00000000020ED3000081000002041680C4BA4
:1017D000994210B5044601D001F088FCA168094B7C
:1017E000994202D0204601F081FCE168064B994203
:1017F00004D02046BDE8104001F078BC10BD00BF09
:10180000F001002058020020C002002010B50B4B50
:101810000B4C0C4A1A60204600220421FFF794FF6B
:1018200004F1680001220921FFF78EFF04F1D000C6
:101830000222BDE810401221FFF786BF28030020D6
:10184000F0010020B5170008014800F0FAB800BF09
:1018500031030020014800F0F5B800BF310300203B
:1018600010B50446FFF7F0FF236A1BB1BDE8104036
:10187000FFF7F0BF044B2362044B1B68002BF5D12C
:10188000FFF7C4FFF2E700BFCD17000828030020D0
:101890002DE9F8430746884614460026D4E9019509
:1018A000B9F1010905D52468002CF7D13046BDE80F
:1018B000F883AB89012B07D9B5F90E30013303D07A
:1018C00029463846C04706436835E9E710B50C4657
:1018D000B1F90E1000F06CF80028ABBF636DA3895E
:1018E0001B1823F48053ACBF6365A38110BD2DE9A1
:1018F000F0411F468B89DB0505460C46164605D58B
:10190000B1F90E100223002200F040F8A389B4F9C7
:101910000E1023F48053A38132463B462846BDE88F
:10192000F04100F057B810B50C46B1F90E1000F0B8
:101930002DF8431CA38915BF606523F4805343F43D
:101940008053A38118BFA38110BDB1F90E1000F020
:101950000DB802440346934200D1704703F8011BBF
:10196000F9E70000004870474C01002038B5064DEB
:101970000023044608462B6006F03AFB431C02D1C4
:101980002B6803B1236038BD2C03002038B5074D08
:1019900004460846114600222A601A4606F032FB29
:1019A000431C02D12B6803B1236038BD2C030020F7
:1019B00038B5074D04460846114600222A601A46EB
:1019C00006F0F8FA431C02D12B6803B1236038BD3E
:1019D0002C03002038B5074D044608461146002266
:1019E0002A601A4606F0F6FA431C02D12B6803B1AE
:1019F000236038BD2C03002070B50D4D0D4C641BC9
:101A0000A4100026A64209D10B4D0C4C08F08EFA0A
:101A1000641BA4100026A64205D170BD55F8043BF6
:101A200098470136EEE755F8043B98470136F2E750
:101A3000D8A40008D8A40008D8A40008DCA4000892
:101A40007047704770472DE9F74F03690C69A3424F
:101A500007467EDB013C01F11408A30000F11405E8
:101A6000009305EB8403019358F8243055F82420A3
:101A700001339A4208EB8409B2FBF3F62ED34FF000
:101A8000000AC446AE46D3465CF8043B98B206FB57
:101A900000A0020C1B0C06FB0323DEF8002080B222
:101AA00092B2121A5A44DEF800004FEA134A9BB26F
:101AB000C3EB224303EB104392B242EA0342E145F7
:101AC0004EF8042B4FEA234BDED2009BEB582BB988
:101AD000019B043B9D421A462FD33C61384601F0DE
:101AE00079F9002825DB2946002058F8042BD1F885
:101AF00000C01FFA82FE1FFA8CF3A3EB0E0303440F
:101B0000120CC2EB234202EB1C429BB243EA02439B
:101B1000C14541F8043B4FEA2240E6D255F8242063
:101B200005EB840322B9043B9D421A460BD33C616A
:101B30000136304603B0BDE8F08F1268043B002A3E
:101B4000CBD1013CC6E71268043B002AEFD1013C2F
:101B5000EAE70020EEE700002DE9F04FC76999B0F1
:101B60008DED020B55EC104B229E099183460E928F
:101B700013937FB9102000F0FDFD0246CBF81C0046
:101B800020B9A74BEF21A74801F0F6FAC0E9017789
:101B90000760C760DBF81C30196859B15A684A60A1
:101BA000012393408B60584600F0DAFEDBF81C30CE
:101BB00000221A602B1EB9BF23F0004303930023B9
:101BC0003360039F984BBCBF01223260BB4312D1EC
:101BD000139A42F20F731360C7F31303234300F009
:101BE0004D85239BDFF854A2002B00F04F850AF1AE
:101BF000030300F049BD9DED027B002251EC170B61
:101C000000238DED0C7BFEF75FFF804658B1139AE1
:101C100001231360239B13B1239A844B1360DFF8D5
:101C200020A200F033BD9DED0C0B16AA17A9584653
:101C300001F080F9C7F30A568146002E77D00D9B3C
:101C4000CDF85080C3F31303DDE90C0143F07F535B
:101C500043F44013A6F2FF3619460022744BFEF7F8
:101C600013FB69A3D3E90023FEF7C6FC68A3D3E9FD
:101C70000023FEF70BFB044630460D46FEF752FCF0
:101C800065A3D3E90023FEF7B7FC02460B462046C6
:101C90002946FEF7FBFA04460D46FEF75DFF0022DB
:101CA0000746002320462946FEF718FF40B1384674
:101CB000FEF738FC22462B46FEF706FF00B9013F2F
:101CC000162F51D85B4B03EBC703D3E90023DDE9A3
:101CD0000C01FEF703FF002848D0013F00231293B8
:101CE000169B9B1B5A1E44BFC3F101080023089298
:101CF00054BF4FF000080893002F39DB089B0F9763
:101D00003B44089300230A93099B092B64D8052BB5
:101D1000C4BF043B0993099BA3F10203CCBF002479
:101D20000124032B63D8DFE803F02A373555DDE9BA
:101D300016631E4406F23243202BC1BFC3F1400399
:101D40009F4006F2124324FA03F3D6BFC3F12003E7
:101D500047EA030004FA03F0FEF7D4FB0122A1F1E5
:101D6000F873013E149277E70123B8E71290B7E7C2
:101D70007B420A930023A8EB07080F93C4E70023D4
:101D80000B930E9B002B35DC0123009307931A461F
:101D90000E920BE00123F3E700230B930E9BFB183D
:101DA00000930133012B0793B8BF0123DBF81C001C
:101DB0000021042202F114059D421FD941605846BA
:101DC00000F08EFD824600283CD11B4B024640F2BB
:101DD000AF11D8E60123E0E70124002309930B9417
:101DE0004FF0FF330093079300221223D0E7012323
:101DF0000B93F5E70E9B00930793D7E70131520051
:101E0000D8E700BFAFF3008061436F63A787D23F7D
:101E1000B3C8608B288AC63FFB799F501344D33FD9
:101E2000899F0008A09F00080000F07F599F0008CC
:101E30000000F83F98A00008F89F0008859F000860
:101E4000589F0008DBF81C301860079B0E2B00F22F
:101E5000A480002C00F0A180002F33DDAD4B07F0F3
:101E60000F0203EBC20393ED007BF8058DED047BBD
:101E70004FEA271416D5A84BDDE90C01D3E9082356
:101E8000FEF7E4FCCDE9020104F00F040326A24DA5
:101E900054B9DDE90423DDE90201FEF7D7FCCDE901
:101EA000020128E00226F2E7E10708D5DDE9040196
:101EB000D5E90023FEF7A0FBCDE90401013664104B
:101EC0000835E5E700F0D2807C42924B924D04F059
:101ED0000F0203EBC203D3E90023DDE90C01FEF797
:101EE0008BFBCDE90201241100230226002C40F0D7
:101EF000B280002BD3D1129BDDE90245002B00F00C
:101F0000B780864B002220462946FEF7E7FD0028D1
:101F100000F0AE80079B002B00F0AA80009B002BF6
:101F200037DD7B1E049320467D4B00222946FEF7B9
:101F300063FBCDE90201009C01363046FEF7F2FA60
:101F4000DDE90223FEF758FB764B0022FEF79EF9EF
:101F50000546A1F15076002C40F08D80DDE90201AC
:101F6000714B0022FEF790F902460B46CDE90223A1
:101F70002A463346FEF7D0FD002840F08B82DDE98B
:101F800002012A4606F10043FEF7A8FD002840F0B2
:101F90002881DDE90C34CDE90234179B002BC0F217
:101FA0005A810E2F00F357815A4B03EBC70393ED71
:101FB000007B0E9B002B8DED007B03DA079B002B33
:101FC00040F30181DDE902455646DDE90023204664
:101FD0002946FEF73BFCFEF7BFFD8046FEF7A2FA5E
:101FE000DDE90023FEF708FB02460B4620462946A2
:101FF00008F13004FEF748F906F8014B079DA6EBFF
:102000000A04A54202460B4640F01781FEF73EF94E
:10201000DDE9002304460D46FEF77EFD002840F072
:10202000F980DDE9002320462946FEF74DFD18B171
:1020300018F0010F40F0EE804946584600F090FC41
:1020400000233370139B01371F60239B002B00F08C
:102050001D831E601AE3E20705D5D5E90023FEF7CC
:10206000CBFA01360123641008353FE7022642E728
:10207000079C049761E7274B0B9903EBC40353E9D3
:1020800002235444002953D028490020FEF7DEFBE8
:1020900033462A46FEF7F8F8CDE910015646DDE949
:1020A0000201FEF759FD0546FEF73CFA02460B46D3
:1020B000DDE90201FEF7E8F8303502460B46CDE9CE
:1020C000022306F8015BDDE91023FEF707FD002877
:1020D00071D1DDE9022311490020FEF7D5F8DDE9D1
:1020E0001023FEF7FBFC002840F09580A6423FF449
:1020F00050AFDDE910010A4B0022FEF77DFA084BD4
:10210000CDE910010022DDE90201FEF775FACDE903
:102110000201C4E798A0000870A000080000F03F8A
:102120000000244000001C40000014400000E03F7C
:1021300031462846FEF760FACDE91001159456465F
:10214000DDE90201FEF708FD0546FEF7EBF9024660
:102150000B46DDE90201FEF797F8303506F8015B22
:1021600002460B46A642CDE902234FF0000224D1DD
:10217000AC4BDDE91001FEF789F802460B46DDE9BC
:102180000201FEF7C9FC002845D1DDE91023A5496D
:102190000020FEF779F802460B46DDE90201FEF762
:1021A0009DFC00283FF4F5AE159E731E159316F89E
:1021B000013C302BF8D0049F3EE79B4BFEF71CFA06
:1021C000CDE90201BCE70CD1984B0022DDE900010A
:1021D000FEF712FADDE90223FEF794FC002800F076
:1021E0005781002425460E9BDB4304935646002767
:1021F0002146584600F0B4FB002DDCD02FB1AF4291
:1022000003D03946584600F0ABFB2946584600F04B
:10221000A7FBD0E7049733461E4613F8012D392A51
:1022200007D19A45F8D1049A0132049230228AF8F3
:1022300000201A7801321A70BDE77B4B0022FEF7AE
:10224000DBF90022002304460D46FEF73DFC002882
:102250003FF4BBAEF0E60B9A002A00F0DB80099A4F
:10226000012A00F3BF80149A002A00F0B78003F21D
:1022700033430A9C4646089A01211A44584698441A
:10228000089200F021FC05465EB1089B002B08DD9A
:10229000B342089AA8BF3346A8EB0308F61AD31A2C
:1022A00008930A9BF3B10B9B002B00F0B7808CB115
:1022B00029462246584600F0C7FC4A4601460546D4
:1022C000584600F017FC49460490584600F048FB79
:1022D000049B99460A9B1A1B04D04946584600F0B5
:1022E000B3FC81460121584600F0EEFB0F9B0446EB
:1022F000002B00F0CF811A460146584600F0A4FC9E
:10230000099B012B044600F39580029B002B40F0B3
:102310008780039BC3F31303002B40F08980039B4A
:1023200023F000431B0D1B052BB1089B01330893C1
:1023300008F1010801230A930F9B002B00F0B081E4
:10234000236904EB8303186900F072FBC0F12000DD
:10235000089B184410F01F0077D0C0F12003042B15
:102360006BDD089BC0F11C000344804406440893C5
:10237000B8F1000F05DD49464246584600F0BEFC64
:102380008146089B002B05DD21461A46584600F081
:10239000B5FC0446129B002B59D02146484600F05C
:1023A00019FD002853DA7B1E0493494600230A22B4
:1023B000584600F0F7FA0B9B8146002B00F0728123
:1023C000002329460A22584600F0ECFA009B002B15
:1023D000054667DC099B022B41DC63E0169BC3F1D9
:1023E000360346E7079B5C1E0A9BA342BFBF0A9BBE
:1023F0000F9A0A94E31AB4BFD2181C1B079BBCBFE8
:102400000F920024002BB5BFA8EB0306079B002307
:10241000464630E70A9C0B9D464635E70A9A5CE73C
:10242000002388E70000E03F000024400000144043
:10243000029B80E700230A9382E799D0089A1C3315
:102440001A4498441E44089292E70346F6E7079B15
:102450000497002B20DC0093099B022B1EDD009BC0
:10246000002B7FF4C0AE21460522584600F09AFAB0
:1024700001460446484600F0ADFC00287FF7B3AEA5
:102480005646312306F8013B049B01330493AEE624
:10249000079C04972546F3E7079B00930B9B002BB3
:1024A00000F00481002E05DD29463246584600F032
:1024B00025FC05460A9B002B5AD06968584600F057
:1024C0000FFA064628B9844B024640F2EF21FFF787
:1024D0005ABB2A690232920005F10C010C3000F05F
:1024E0003DFE01223146584600F008FC0AF1010386
:1024F0000793009B53440B93029B03F001032F4669
:102500000A930546079B2146013B48460093FFF787
:102510009AFA3946029000F13008484600F05AFC19
:102520002A4608902146584600F070FCC2680646CC
:1025300002BB0146484600F04DFC02463146584673
:102540000E9200F00DFA099B0E9A079E43EA0201D3
:102550000A9B194310D1B8F1390F29D0089B002BE1
:1025600002DD029B03F13108009B83F800803FE607
:102570002846BBE70122E1E7089B002B04DB099911
:102580000B430A990B4320D1002AEDDD4946012275
:10259000584600F0B3FB2146814600F01BFC0028A2
:1025A00003DCE1D118F0010FDED0B8F1390FD8D13A
:1025B000009A3923137033461E46013B16F8012C4E
:1025C000392A52D001321A7012E6002A07DDB8F11A
:1025D000390FEDD0009A08F10103137008E6079B4C
:1025E000079A03F8018C0B9B934228D0494600239D
:1025F0000A22584600F0D6F9AF4281464FF0000358
:102600004FF00A023946584607D100F0CBF9074689
:102610000546079B0133079374E700F0C3F9294689
:10262000074600230A22584600F0BCF90546F0E7A9
:10263000009B002BCCBF1E4601265644002749466E
:102640000122584600F05AFB2146814600F0C2FBA9
:102650000028B0DC02D118F0010FACD133461E4681
:1026600013F8012D302AFAD0C2E59A45A4D1049B73
:102670000133049331238AF80030B9E5239BDFF856
:102680005CA01BB10AF10803239A1360504619B0ED
:10269000BDE8F08F099B012B7FF737AE0F9B0A93A4
:1026A000012055E6009B002B7FF7D6AE564621460B
:1026B0004846FFF7C8F900F1300806F8018B009B87
:1026C000A6EB0A029342B3DD494600230A2258468C
:1026D00000F068F98146EAE7F89F00087C9F00084F
:1026E00038B50546002941D051F8043C0C1F002B99
:1026F000B8BFE41800F0E8F81D4A136833B9636006
:1027000014602846BDE8384000F0E4B8A34208D978
:10271000206821188B4201BF19685B680918216085
:10272000EDE71A465B680BB1A342FAD9116850185D
:10273000A0420BD120680144501883421160E0D1BF
:1027400018685B68536008441060DAE702D90C230C
:102750002B60D6E7206821188B4204BF19685B689C
:10276000636004BF091821605460CAE738BD00BF28
:1027700038030020024B0146186800F025B800BF5E
:102780000C00002070B50F4E0C463168054611B99B
:1027900000F0D4FC30602146284600F0CFFC431CFA
:1027A00003D14FF0FF34204670BDC41C24F0030455
:1027B000A042F8D0211A284600F0C0FC0130F2D126
:1027C000EFE700BF340300202DE9F843CD1C25F0CE
:1027D000030508350C2D38BF0C25002D064601DBFE
:1027E000A94204D90C2333600020BDE8F883DFF848
:1027F000D48000F069F8D8F800301C4644BB294664
:102800003046FFF7BFFF431C044658D1D8F80040BC
:102810002746002F43D1002C4BD023683946304641
:1028200004EB030900F08AFC814542D121686D1A4E
:1028300029463046FFF7A6FF01303AD023682B44E3
:102840002360D8F800305A6862BBC8F800700FE007
:102850002268521B20D40B2A17D96119A342256084
:1028600018BF5960636808BFC8F8001062514B6018
:10287000304600F02FF804F10B00231D20F0070074
:10288000C21A1CBF1B1AA350AFE76268A3420CBF59
:10289000C8F800205A60EBE723466468AEE73C4680
:1028A0007F68B6E71A465B68A342FBD100235360FA
:1028B000DEE70C233360304600F00CF894E7056047
:1028C000D6E700BF380300200148FFF7BAB800BFC1
:1028D000300300200148FFF7B5B800BF30030020E7
:1028E00070B5C66904460D4676B91020FFF742FF61
:1028F0000246E06120B9184B18486B2100F03CFCFF
:10290000C0E901660660C660E669F36883B1E36901
:10291000DB6853F82500B8B9012101FA05F6721DEC
:102920009200204600F046FC60B1C0E901560EE07E
:1029300021220421204600F03DFCE369F060DB68C1
:10294000002BE4D1002070BD026843F8252000234D
:10295000C0E90333F7E700BF899F000809A000081A
:1029600070B5C66905460C4676B91020FFF702FF20
:102970000246E86120B9094B09488F2100F0FCFBB1
:10298000C0E901660660C6603CB1EB696268DB685D
:1029900053F82210216043F8224070BD899F00083F
:1029A00009A000082DE9F0410D6907460C461E46B6
:1029B00001F1140C0020DCF8003099B202FB016137
:1029C0001E0C0B0C02FB063389B2013001EB0341F4
:1029D00085424CF8041B4FEA1346ECDC0EB3A368A7
:1029E000AB4219DC616838460131FFF779FF804658
:1029F00028B902460C4B0D48BA2100F0BDFB2269F4
:102A0000023204F10C0192000C3000F0A7FB2146C9
:102A10003846FFF7A5FF444604EB850301355E61A8
:102A200025612046BDE8F081F89F000809A0000854
:102A3000B0F5803F034636BF030400201020B3F1F9
:102A4000807F3CBF1B020830B3F1805F3CBF1B019D
:102A50000430B3F1804F3CBF9B000230002B05DBFC
:102A600013F0804F00F1010008BF20207047036879
:102A7000024613F007000BD0D90721D4980749BFAD
:102A80005B089B08012013605CBF13600220704745
:102A900099B209B91B0C1020D9B209B908301B0A28
:102AA000190704BF1B090430990704BF9B080230B3
:102AB000D90703D45B0800F1010003D0136070470D
:102AC000002070472020704710B50C460121FFF709
:102AD00007FF024628B9054B054840F2451100F0B2
:102AE0004BFB01234461036110BD00BFF89F000848
:102AF00009A000082DE9F04F14460A6923699A429B
:102B0000A8BF23460F46A4BF0C461F46D4F810A00A
:102B1000D7F81090A36861680AEB0906B34285B044
:102B2000B8BF0131FFF7DCFE30B90246444B4548DF
:102B30004FF4B17100F020FB00F1140505EB86089D
:102B40002B460022434521D307F1140104F114025E
:102B500002EB8A0201EB89030293131B153B23F05E
:102B60000303043304F11507BA4238BF0423019369
:102B7000029B03918B420CD8002E03DD58F8043DD4
:102B8000002B5BD0066105B0BDE8F08F43F8042B45
:102B9000D8E7B1F800A0BAF1000F24D004F1140E68
:102BA000A9464FF0000C5EF8047BD9F800301FFAFC
:102BB00087FB9BB20AFB0B334FEA174BD9F8007027
:102BC00063444FEA174C0AFB0BC707EB13479BB252
:102BD00043EA0743724549F8043B4FEA174CE2D8F1
:102BE000019B45F803C0039BB3F802900431B9F18F
:102BF000000F21D02B6804F1140CAE464FF0000AF0
:102C0000BCF800B0BEF8027009FB0B7757449BB2CA
:102C100043EA07434EF8043B5CF8043B4FEA134A8F
:102C2000BEF8003009FB0A3303EB174362454FEA55
:102C3000134AE5D8019FEB51043599E7013E9BE724
:102C4000F89F000809A000082DE9F843154612F086
:102C5000030207460E4607D0254C013A002354F8DC
:102C60002220FFF79FFE0646AD103DD0FC697CB9DF
:102C70001020FFF77FFD0246F86128B91D4B1E4862
:102C800040F2B31100F078FAC0E901440460C46076
:102C9000D7F81C80D8F808404CB940F2712138466A
:102CA000FFF712FF0023C8F80800044603604FF046
:102CB0000009EB070AD5314622463846FFF71AFFCE
:102CC000314680463846FFF74BFE46466D100BD026
:102CD000206838B9224621463846FFF70BFF2060AE
:102CE000C0F800900446E4E73046BDE8F88300BF32
:102CF00064A00008899F000809A000082DE9F0479A
:102D00000C464968236903EB6218A368074691469D
:102D10004FEA621A08F10106B3420BDB3846FFF7AF
:102D2000DFFD054648B90246284B29484FF4EF71AC
:102D300000F022FA01315B00EEE7002300F11401FC
:102D400000F110021846534533DB20692AEAEA7A7B
:102D500004F1140319F01F0901EB8A0103EB800C45
:102D60002BD0C9F1200E8A460022186800FA09F01B
:102D700010434AF8040B53F8042B9C4522FA0EF238
:102D8000F3D8ACEB0403153B23F00303043304F145
:102D90001500844538BF0423CA500AB108F1020661
:102DA000013E38462E612146FFF7DAFD2846BDE890
:102DB000F08742F8040F0133C5E7043953F8042BB8
:102DC00041F8042F9C45F9D8EAE700BFF89F0008B6
:102DD00009A000080A6903460069801A30B50ED1BF
:102DE0001433143103EB820401EB820154F8045DC7
:102DF00051F8042D954203D005D24FF0FF3030BD7D
:102E0000A342F3D3FBE70120F9E700002DE9F74FD8
:102E100089460646114648461446FFF7DBFF051E65
:102E200012D129463046FFF75BFD024628B93F4BD9
:102E300040F237213E4800F09FF90123C0E90435F4
:102E4000104603B0BDE8F08FBCBF4B46A1463046EC
:102E5000D9F80410BABF1C4601250025FFF740FD34
:102E6000024618B9314B40F24521E3E7D9F810701A
:102E70002669C56009F1100309F1140504F1140E67
:102E800000F1140B05EB87080EEB86060193D9467B
:102E90004FF0000C019B5EF8040B53F804AF019354
:102EA0001FFA8AF3194683B2CB1A000C6344C0EBB5
:102EB0001A4000EB23409BB243EA0043764549F8B1
:102EC000043B4FEA204CE5D8331B153B23F00303AA
:102ED00015340433A64238BF04231D445B441E4608
:102EE0002C4644450ED308F10301491B21F0030190
:102EF000033DA84538BF00210B4453F8041D91B190
:102F000017619DE754F8041BE646080C1CFA81FC87
:102F1000714400EB2C4089B241EA004146F8041BA1
:102F20004FEA204CDDE7013FE7E700BFF89F0008CC
:102F300009A000082DE9F7430F46012159EC108B39
:102F40001646FFF7CDFC044630B90246234B244811
:102F500040F20F3100F010F9C9F30A55C9F3130319
:102F60000DB143F480130193B8F1000323D06846F8
:102F70000093FFF77CFDDDE90012D0B1C0F1200322
:102F800002FA03F30B43C24063610192019BA36108
:102F9000002B0CBF012202222261A5B1A5F233450C
:102FA00005443D60C0F135003060204603B0BDE807
:102FB000F0836161EAE701A8FFF759FD019B6361B6
:102FC00020300122E8E704EB8203A0F232403860AF
:102FD0001869FFF72DFDC0EB4210E5E7F89F0008E8
:102FE00009A00008B1F90C202DE9F04116070546AB
:102FF0000C4654D44B68002B02DC0B6C002B48DDD4
:10300000E66A002E45D0002312F480522F68216A10
:103010002B6030D0626DA389590705D56368D21A39
:10302000636B0BB1236CD21A0023E66A216A28462F
:10303000B047431CA38906D129681D292BD82A4AE9
:103040000A41D60727D400226260D904226922608F
:1030500004D5421C01D12B6803B96065616B2F60F8
:10306000B9B104F14403994202D02846FFF738FB76
:10307000002363630DE001232846B0470246501C3D
:10308000C9D12B68002BC6D01D2B01D0162B1ED109
:103090002F60002022E043F040031BB21BE00F69C9
:1030A000002FF6D093070E6808BF4B690F6018BF5A
:1030B0000023A6EB07088B60B8F1000FE9DD216A59
:1030C000A66A43463A462846B047002808DCB4F9C9
:1030D0000C3043F04003A3814FF0FF30BDE8F08196
:1030E0000744A8EB0008E7E7FEFFBFDF38B50B6930
:1030F00005460C4613B90025284638BD18B1036AA9
:103100000BB9FEF7ADFBB4F90C30002BF3D0626EB7
:10311000D00704D4990502D4A06DFEF792FC28468E
:103120002146FFF75FFF636EDA070546E4D4A38903
:103130009B05E1D4A06DFEF785FCDDE738B5064DB3
:103140000023044608462B6004F05EFF431C02D1B6
:103150002B6803B1236038BD2C0300200A44914240
:1031600000F1FF3300D1704710B511F8014B03F89F
:10317000014F9142F9D110BD1FB514461A46094BB3
:103180001B680546D86854B9074B1C46CDE9013485
:1031900000912B46054900F041F800F051F8044B2E
:1031A000F4E700BF0C000020A5A1000877A10008EB
:1031B0006AA1000870B5A1FB02543CB92946FFF78B
:1031C00003FB064628B90026304670BD0C2202607B
:1031D000F9E72A462146FEF7BCFBF5E782B001B9C4
:1031E00001A942B14BB113780B601278101E18BFC1
:1031F000012002B070471046FBE76FF00100F8E7CE
:103200000346084641B1FF2A04D98A221A604FF0CA
:10321000FF3070470A700120704700000EB403B5FC
:10322000014603AB054853F8042B0068019300F0F6
:1032300037F802B05DF804EB03B070470C000020D3
:1032400008B5062000F01AFA012004F0ADFE9368DC
:10325000013B002B10B4936008DA9469A34201DBB0
:103260000A2903D15DF8044B00F032B91368581CE9
:103270001060197008465DF8044B7047F8B50646B3
:103280000F461446D518AC4201D1002007E014F8CF
:10329000011B3A463046FFF7DAFF431CF3D1F8BD75
:1032A0002DE9F04F0D469DB014469846064618B1DC
:1032B000036A0BB9FEF7D4FA6B6ED90705D4AB8954
:1032C0009A0502D4A86DFEF7BCFBAB891B0701D59C
:1032D0002B699BB92946304600F038F970B16B6E06
:1032E000DC0704D54FF0FF301DB0BDE8F08FAB898F
:1032F0009805F7D4A86DFEF7A5FBF3E70023099323
:1033000020238DF82930CDF80C803023DFF8AC81F4
:103310008DF82A304FF0010923469A4613F8012B05
:103320000AB1252AF9D1BAEB040B0BD05B46224631
:1033300029463046FFF7A2FF013000F0A780099A26
:103340005A4409929AF80030002B00F09F80002325
:103350004FF0FF32CDE905230AF1010A04930793E8
:103360008DF853301A935446052214F8011B534824
:10337000FCF72EFF049AD8B9D10644BF20238DF85C
:103380005330130744BF2B238DF853309AF8003085
:103390002A2B15D0079A544600204FF00A0C2146DC
:1033A00011F8013B303B092B4BD9B0B1079214E027
:1033B000A0EB080309FA03F313430493A246D2E7F0
:1033C000039B191D1B680391002BBBBF5B4242F09E
:1033D000020207930793B8BF049223782E2B0AD1D9
:1033E00063782A2B32D1039B1A1D1B68039243EA90
:1033F000E37302340593DFF8D4A02178032250460A
:10340000FCF7E6FE38B1049BA0EB0A0040228240A4
:1034100013430134049314F8011B29488DF8281034
:103420000622FCF7D5FE00283FD0264B1BBB039B92
:10343000073323F0070308330393099B3B440993A5
:103440006AE70CFB02320C460120A8E70023013496
:10345000059319464FF00A0C204610F8012B303A1C
:10346000092A03D9002BC6D00591C4E70CFB012122
:1034700004460123F0E703AB00932A46124B04A94C
:103480003046FDF7A9FD0746781CD6D16B6ED907EB
:1034900005D4AB899A0502D4A86DFEF7D3FAAB899F
:1034A0005B063FF51FAF09981EE703AB00932A4662
:1034B000054B04A93046FEF727F8E4E7A7A2000869
:1034C000B1A20008D90F00087D320008ADA20008A3
:1034D000F8B50E461446054618B1036A0BB9FEF757
:1034E000BFF9A369A360A3891A0701D5236943B96A
:1034F0002146284600F02AF818B14FF0FF37384629
:10350000F8BD23682269981A6369F6B28342374688
:1035100005DC21462846FFF7E9FD0028EDD1A36828
:10352000013BA36023685A1C22601E706269431C21
:103530009A4204D0A389DB07E1D50A2EDFD12146C8
:103540002846FFF7D3FD0028D9D0D6E738B5294B58
:10355000054618680C4618B1036A0BB9FEF780F9E6
:10356000B4F90C30190722D4DA0607D409222A60EC
:1035700043F04003A3814FF0FF3033E0580712D5EA
:10358000616B41B104F14403994202D02846FFF730
:10359000A7F800236363A38923F02403A3810023F6
:1035A000636023692360A38943F00803A38123692F
:1035B0004BB9A38903F42073B3F5007F03D02146F0
:1035C000284600F0CBF8B4F90C3013F001020AD011
:1035D0000022A26062695242A261226942B913F0DC
:1035E0008000C5D138BD990758BF6269A260F4E771
:1035F0000020F7E70C000020884210B501EB020420
:1036000002D98442234607D8431EA14208D011F8AC
:10361000012B03F8012FF8E7024401468A4200D14A
:1036200010BD13F8014D02F8014DF7E71F2938B519
:1036300005460C4604D9162303604FF0FF3038BD11
:10364000C26B12B152F821304BB9284600F030F865
:10365000224601462846BDE8384000F017B8012B45
:103660000AD0591C03D1162303600120E7E700218B
:1036700042F82410204698470020E0E7024B01461C
:103680001868FFF7D3BF00BF0C00002038B5074D06
:1036900000230446084611462B6004F07DFC431CC1
:1036A00002D12B6803B1236038BD00BF2C0300207A
:1036B00004F070BC2DE9F041804615460C4621B956
:1036C000BDE8F0411146FFF77FB82AB9FFF708F8C7
:1036D00000242046BDE8F08100F09EF885420646B1
:1036E00002D8B5EB500FF4D829464046FFF76CF8E6
:1036F00007460028ECD0B5422A46214628BF32466C
:10370000FFF72CFD21464046FEF7EAFF3C46E0E786
:1037100070B50C46B1F90E10002996B015461E463C
:103720000DDAA38913F0800F4FF0000114BF40237E
:103730004FF48063002031602B6016B070BD6A4684
:1037400000F048F80028ECDB019901F47041A1F584
:103750000053594259414FF48063EBE78B89F7B529
:103760009D0706460C4607D504F1470323602361F5
:103770000123636103B0F0BD01AB6A46FFF7C8FFE8
:10378000009F054639463046FFF71EF848B9B4F9A0
:103790000C309A05EED423F0030343F00203A38117
:1037A000E2E7A389206043F08003A381019BC4E981
:1037B00004075BB1B4F90E10304600F01DF828B1D3
:1037C000A38923F0030343F00103A381A3891D43CD
:1037D000A581CFE738B5074D0023044608461146BA
:1037E0002B6004F008FC431C02D12B6803B123605A
:1037F00038BD00BF2C03002038B5064D0023044619
:1038000008462B6004F0FCFB431C02D12B6803B17B
:10381000236038BD2C03002051F8043C181F002BF6
:10382000BCBF0B58C018704730B583B0002301935C
:1038300090F85030012B41D004460D46012380F80A
:10384000503000F0CBFE80BB636D23F4885323F02F
:10385000020343F0020363652268936823F0404348
:1038600023F03F0305F080452B4343F00043936072
:1038700023689B68002B06DB636D23F0030343F092
:103880000103636515E0019B01330193019BB3F5CF
:10389000912FEDD3636D23F0120343F010036365A2
:1038A000002384F85030012006E0636D43F01003DC
:1038B0006365002384F8503003B030BD0220FBE77D
:1038C00070477047704770477047000090F850206D
:1038D000012A00F08D8010B49BB00346012280F8CD
:1038E00050200022169217920068424A90423FD020
:1038F00000220192019A002A3ED0926812F004023E
:1039000000D00122806810F0040F61D1002A5FD13D
:103910000A68002A39D0384CA26822F4604248680C
:1039200093F830C040EA4C300243A260314A9068BC
:1039300010F0010000D00120304A926812F001021C
:1039400000D0012202432E48806810F0010000D010
:103950000120024348D1284CA26822F4716222F06F
:103960000F020868896801430A43A260002034E01E
:1039700002F580720192BDE75A6D42F020025A654D
:10398000002283F8502001202AE01B498A6822F493
:1039900060428A60174A916811F0010100D001214C
:1039A000164A926812F0010200D001220A4314491B
:1039B000896811F0010100D001210A4316D10E4996
:1039C0008A6822F4716222F00F028A60002004E00B
:1039D0005A6D42F020025A650120002283F85020DF
:1039E0001BB05DF8044B70470020F6E70020F4E7B9
:1039F00002207047000004500003045000010450EE
:103A00000002045010B430300B0A9B0003F00C038A
:103A1000C45801F01F014FF01F0C0CFA01FC24EAFE
:103A20000C0CC2F384628A404CEA0202C2505DF878
:103A3000044B704710B414304B0E9B0003F004038A
:103A4000C458C1F304514FF0070C0CFA01FC24EAEE
:103A50000C0C8A404CEA0202C2505DF8044B7047DD
:103A600030B583B000230193002800F0E5800446C0
:103A7000436D13B323689A6812F0005F05D09A680B
:103A800022F0204222F03F029A602268936813F0ED
:103A9000805F1FD1936823F0104323F03F0343F06E
:103AA00080539360654B1B689B09654AA2FB032307
:103AB0009B0901335B00019309E004F0CBFF002375
:103AC000A36584F85030D5E7019B013B0193019B2E
:103AD000002BF9D12268936813F0805F40F0838057
:103AE000636D43F010036365A36D43F00103A365A9
:103AF0000120936813F0040300D00123616D11F0DD
:103B0000100F40F09280002B40F08F80636D23F403
:103B1000817343F002036365936813F0010F1BD1B7
:103B2000484B9A6812F0010200D00122464B9B6874
:103B300013F0010300D001231343444A926812F0AA
:103B4000010200D00122134306D1636840498A680C
:103B500022F47C1213438B60627E636B43EA423330
:103B6000E2681343A268134394F8202043EA024317
:103B7000012A3AD0A26A22B102F47072E16A0A43C1
:103B800013432168CD68334A2A401A43CA60226829
:103B9000936813F0080300D00123ABB9237E94F897
:103BA0003010490041EA8331D36823F4804323F085
:103BB00002030B43D36094F83830012B1AD02268EB
:103BC000136923F0010313612369012B24D02268B8
:103BD000136B23F00F031363636D23F0030343F0B0
:103BE0000103636526E0002083E7626A013A43EA45
:103BF0004243BFE721680B6923F4FF6323F004030A
:103C0000E26B256C2A43656C2A43A56C2A43134357
:103C100043F001030B61D7E721680B6B23F00F031F
:103C2000E269013A13430B63D6E7636D43F0100377
:103C30006365012003B030BD0120FBE7D001002007
:103C4000632D3E05000004500001045000020450A2
:103C50000003045007C0F0FF704708B5806AFFF703
:103C6000FBFF08BD70477047F8B5044603681F683E
:103C70005D689A4B9E6806F01F0617F0020F10D081
:103C800015F0020F0DD0436D13F0100F03D1436DEB
:103C900043F4006343652046FFF716FE23680222C3
:103CA0001A6017F0040F02D015F0040F05D117F0B9
:103CB000080F4DD015F0080F4AD0636D13F0100FA8
:103CC00003D1636D43F4007363652368DA6812F40B
:103CD000406F37D1824A93420CD01A4693420CD09F
:103CE000092E05D840F22121F14011F0010F04D135
:103CF000D26803E0A2F58072F0E7DA6812F4005FA0
:103D000020D11A6812F0080F1CD09A6812F0040F24
:103D100010D15A6822F00C025A60636D23F480734C
:103D20006365636D13F4805F0CD1636D43F0010331
:103D3000636507E0636D43F010036365A36D43F0B3
:103D40000103A365204604F053FA23680C221A608D
:103D500017F0200F02D015F0200F05D117F0400FFB
:103D60005CD015F0400F59D0636D13F0100F03D1E4
:103D7000636D43F4005363652368DA6C12F0C00F7F
:103D800012D10121DA6812F4406F0FD10120544A98
:103D900093420DD01A4693420DD066B1062E0AD03A
:103DA000072E08D0D26807E00021EBE70020EEE7FD
:103DB000A2F58072EFE7DA6851B312F0007F03D00A
:103DC00030B312F4005F23D1196811F0400F1FD0F7
:103DD00012F4001F1CD19A6812F0080F10D15A6813
:103DE00022F060025A60636D23F480536365636D53
:103DF00013F4807F0CD1636D43F00103636507E02A
:103E0000636D43F010036365A36D43F00103A36585
:103E10002046FFF755FD236860221A6017F0800FD7
:103E200002D015F0800F2FD117F4807F02D015F447
:103E3000807F34D117F4007F02D015F4007F3AD18F
:103E400017F0100F19D015F0100F16D0636B33B1A7
:103E5000002E3CD0214B9B6813F4604F0AD0636D59
:103E600043F480636365A36D43F00203A3652046BA
:103E7000FFF7F9FE236810221A6017F4806F02D052
:103E800015F4806F2ED1F8BD636D43F48033636504
:103E90002046FFF7E7FE236880221A60C4E7636DBF
:103EA00043F4003363652046FFF70CFD23684FF4AD
:103EB00080721A60BEE7636D43F480236365204619
:103EC000FFF701FD23684FF400721A60B8E723681A
:103ED000DB6813F0010FCDD0C1E700BF0003045031
:103EE00000010450636D43F480436365A36D43F0A8
:103EF0000803A36523684FF480621A602046FFF729
:103F0000E0FCC0E708B50346806A426D12F0500F2E
:103F100030D1436D43F40073436503681A6812F0AF
:103F2000080F14D0DA6812F4406F20D1DB6813F464
:103F3000005F1CD1436D23F480734365436D13F41C
:103F4000805F14D1436D43F0010343650FE0DB68EC
:103F500013F0020F0BD1436D23F480734365436D5F
:103F600013F4805F03D1436D43F00103436504F014
:103F70003FF908BD426D12F0100F04D1C26C526BB4
:103F800018469047F5E7FFF76EFEF2E708B5806A3E
:103F9000436D43F040034365836D43F00403836541
:103FA000FFF761FE08BD0000F0B583B00023019368
:103FB00090F85030012B00F00C8204460D4601238E
:103FC00080F850300068836813F0040F09D0636DE7
:103FD00043F0200363650120002384F8503003B0D0
:103FE000F0BD4968052907D8023903294ED8DFE812
:103FF00001F0024F484A0C212A68FFF703FD2068B0
:10400000836813F0040300D00123826812F00802D1
:1040100000D001220BB9002A3CD02268936813F02B
:10402000010F17D12B68E868D2F8B010C3F312065D
:1040300021EA060100F0180CA84820FA0CF0034011
:10404000C3F312030B43C2F8B030EA68A44B9A42A0
:1040500000F0A5802B68A34A134200F0B681A24A63
:10406000926802F0E070A1498B4200F05881A049AB
:104070008B4200F07F819F498B4200F093810020AA
:10408000AAE71821B8E74FF48071B5E70621B3E736
:104090001221B1E7AA682968FFF7CCFC6A69216898
:1040A000CB68C3F3C1035B009A40286904280ED093
:1040B0002E68603151F820708F4B3B4006F0F84677
:1040C0003243134343F0004341F82030A5E70B6E21
:1040D0000A6EC2F384622B68C3F3120080BBC3F381
:1040E00084639A4234D021684B6E4A6EC2F3846274
:1040F0002B68C3F3120080BBC3F384639A4234D0AD
:1041000021688B6E8A6EC2F384622B68C3F312003F
:1041100080BBC3F384639A4234D02168CB6ECA6EED
:10412000C2F384622B68C3F3120080BBC3F38463C1
:104130009A427FF472AFCB6E23F00043CB666CE7FC
:1041400093FAA3F313B1B3FA83F3CAE72023C8E7C2
:104150000B6E23F000430B66C5E793FAA3F313B18C
:10416000B3FA83F3CAE72023C8E74B6E23F000437A
:104170004B66C5E793FAA3F313B1B3FA83F3CAE727
:104180002023C8E78B6E23F000438B66C5E793FAC4
:10419000A3F313B1B3FA83F3CAE72023C8E7206877
:1041A0002B68C3F312063EBB9A0E013202F01F02C7
:1041B000092A8CBF00220122002A55D05EBB990E2D
:1041C0000131890601F0F8418EBB4FEA936C0CF186
:1041D000010C0CF01F0C012202FA0CF21143AEBBD1
:1041E0009B0E013303F01F0303EB43031B0519432D
:1041F000AA68FFF71FFC2DE793FAA3F24AB1B2FABF
:1042000082F2013202F01F02092A8CBF0022012231
:10421000D2E72022F5E793FAA3F131B1B1FA81F1A7
:104220000131890601F0F841CEE72021F8E793FA41
:10423000A3F24AB1B2FA82F2013202F01F024FF049
:10424000010C0CFA02F2C9E72022F5E793FAA3F376
:1042500043B1B3FA83F3013303F01F0303EB4303CA
:104260001B05C4E72023F6E7E6B9990E013189065C
:1042700001F0F84116BB4FEA936C0CF1010C0CF005
:104280001F0C012202FA0CF21143BEBB9B0E01333C
:1042900003F01F0303EB43031E3B1B0543F00073B6
:1042A0001943A5E793FAA3F131B1B1FA81F10131D4
:1042B000890601F0F841DDE72021F8E793FAA3F23F
:1042C0004AB1B2FA82F2013202F01F024FF0010C41
:1042D0000CFA02F2D8E72022F5E700BFFFFF070043
:1042E00000007F400000088000030450000052C717
:1042F000000084CB0100008000F0FF0393FAA3F3D9
:104300005BB1B3FA83F3013303F01F0303EB430301
:104310001E3B1B0543F00073C2E72023F3E712F4B2
:10432000000F7FF4A4AE23682B4A934205D002F518
:104330000072934201D000204EE640F40000274A6C
:10434000936823F0E07318439060254B1B689B092A
:10435000244AA2FB03239B09013303EB43039B0085
:10436000019302E0019B013B0193019B002BF9D1DA
:10437000002031E612F0807F7FF47DAE2368164A7C
:10438000934205D002F50072934201D0002023E64B
:1043900040F0807311498A6822F0E07213438B6009
:1043A000002019E612F4800F11D122680A4B9A42BC
:1043B00001D0002010E640F4800308498A6822F00A
:1043C000E07213438B60002006E6002004E6002024
:1043D00002E6022003E600BF000004500003045080
:1043E000D0010020632D3E0530B583B0002301933A
:1043F00003689A6812F0010F58D1044699682D4A53
:10440000114219D19A6822F0004222F03F0242F094
:1044100001029A60284B9B6813F4000F1CD0274BB5
:104420001B689B09264AA2FB03239B09013303EB6C
:1044300043039B0001930CE0436D43F0100343657D
:10444000836D43F001038365012030E0019B013B54
:104450000193019B002BF9D103F014FD054623685D
:104460001A6812F0010F1FD19A6812F0010F07D1DC
:104470009A6822F0004222F03F0242F001029A6064
:1044800003F000FD431B022BE9D923681B6813F0DE
:10449000010FE4D1636D43F010036365A36D43F036
:1044A0000103A365012002E0002000E0002003B02A
:1044B00030BD00BF3F00008000030450D001002049
:1044C000632D3E052DE9F04104463E4B9E68006891
:1044D000856815F0040F6FD10F46904606F01F0651
:1044E00094F85030012B6AD0012384F85030364BB9
:1044F00098420CD0092E05D840F22123F34013F046
:10450000010F04D1002384F85030012055E02046EB
:10451000FFF76AFF00284BD1636D23F4706323F02B
:10452000010343F4807363652368284A934239D0BA
:104530001A46934200D01EB9636D23F4801363655D
:10454000636D13F4805F30D0A36D23F00603A36581
:10455000E36C1F4ADA62E36C1E4A1A63E36C1E4A7C
:104560005A6323681C221A60002384F850302268A2
:10457000536843F0100353602268D36843F001038B
:10458000D360216843463A464031E06C00F08AF936
:104590002268936823F0004323F03F0343F00403B1
:1045A00093600AE0A2F58072C3E70023A365CFE71A
:1045B000002384F8503000E00220BDE8F0810220A2
:1045C000FBE700BF00030450000204500001045048
:1045D000053F00085B3C00088D3F000838B50446E5
:1045E0000268936813F0020300D00123916811F070
:1045F000010F39D0002B39D1936803F00D03012B43
:1046000009D0636D43F010036365A36D43F00103AC
:10461000A365012029E0936823F0004323F03F03C2
:1046200043F002039360236803221A6003F02AFC1C
:10463000054623689B6813F0010F13D003F022FC9A
:10464000401B0228F5D923689B6813F0010FF0D0B6
:10465000636D43F010036365A36D43F00103A3652D
:10466000012002E0002000E0002038BD0020FCE72F
:10467000002807DB00F01F02400901239340024A93
:1046800042F82030704700BF00E100E0002808DB5E
:104690000901C9B200F1604000F5614080F80013E3
:1046A000704700F00F000901C9B2014B195470475F
:1046B00014ED00E000B500F00700C0F1070CBCF1FC
:1046C000040F28BF4FF0040C031D062B0FD9C31E87
:1046D0004FF0FF3E0EFA0CF021EA000199400EFA6D
:1046E00003FE22EA0E0241EA02005DF804FB002309
:1046F000EEE70000074AD36823F4E0631B041B0CB9
:10470000000200F4E060034343F0BF6343F400336E
:10471000D360704700ED00E010B50446054BD86843
:10472000C0F30220FFF7C6FF01462046FFF7AEFFA9
:1047300010BD00BF00ED00E008B5FFF799FF08BD10
:104740000138B0F1807F0BD24FF0E0235861054A69
:10475000F02182F823100020986107221A61704727
:104760000120704700ED00E030B4446C04F01C0CF4
:10477000012404FA0CF4056C6C60046863608368BF
:10478000102B05D0036899600368DA6030BC70476D
:1047900003689A600368D960F8E70000002873D0C6
:1047A00010B403460068394A90424AD8384A024455
:1047B0003849A1FB0212120992005A64364A1A645F
:1047C000022283F82520016821F4FF4121F07001C5
:1047D0009A68DC6822431C6922435C6922439C6915
:1047E0002243DC6922431C6A22430A4302609A681E
:1047F000B2F5804F1BD0196C274A91422CD0264A23
:10480000D2F8A814586C00F01C0C0F2000FA0CF021
:1048100021EA0001C2F8A814D2F8A81458685C6C08
:1048200004F01C0C00FA0CF00143C2F8A81400209C
:10483000D863012283F8252083F824005DF8044B17
:104840007047164A02441349A1FB02121209920052
:104850005A64134A1A64B3E7D2F8A810586C00F0EF
:104860001C0C0F2000FA0CF021EA0001C2F8A8107D
:10487000D2F8A81058685C6C04F01C0C00FA0CF01C
:104880000143C2F8A810D2E7012070470704024094
:10489000F8FFFDBFCDCCCCCC00000240F8FBFDBF43
:1048A0000004024038B5044690F82400012832D0B4
:1048B000012084F8240094F82500C0B2012804D017
:1048C000002384F82430022038BD022084F825001B
:1048D0000020E0632568286820F001002860204659
:1048E000FFF742FF236B5BB12268136843F00E03AE
:1048F00013602268136843F0010313600020E3E7AC
:104900002268136823F0040313602268136843F0DD
:104910000A031360EDE70220D6E790F82530DBB2FA
:10492000022B06D00423C363002380F82430012027
:1049300070470268136823F00E031360026813685F
:1049400023F001031360436C03F01C03016C01228C
:1049500002FA03F34B6080F82520002380F824300E
:104960001846704708B590F82530DBB2022B03D00B
:104970000423C363012008BD0268136823F00E03FB
:1049800013600268136823F001031360436C03F0A3
:104990001C03016C012202FA03F34B6080F825200E
:1049A000002380F82430836B13B198470020E2E79E
:1049B0000020E0E738B5036C196804682568436C8B
:1049C00003F01C0304229A400A4215D015F0040F8C
:1049D00012D0236813F0200F03D1236823F00403BF
:1049E0002360436C03F01C02016C042393404B6072
:1049F000036B03B1984738BD02229A400A421CD08B
:104A000015F0020F19D0236813F0200F06D1236888
:104A100023F00A032360012380F82530436C03F060
:104A20001C02016C022393404B60002380F8243069
:104A3000C36A002BDFD09847DDE7082202FA03F3B0
:104A40000B42D8D015F0080FD5D0236823F00E0301
:104A50002360436C03F01C03016C012202FA03F390
:104A60004B60C26380F82520002380F82430436B1C
:104A7000002BC0D09847BEE7F0B583B000236BE0B1
:104A800085685E000324B44025EA0405CC68B44080
:104A90002C438460456825EA0C054C68C4F3001477
:104AA0009C402C43446069E0C56A25EA0C05C4F3C8
:104AB000C0049C402C43C46266E0DD08083550F811
:104AC000254003F0070C4FEA8C0C4FF00F0E0EFA46
:104AD0000CFE24EA0E0E0C6904FA0CF444EA0E04EF
:104AE00040F8254067E0062400E0002404FA0EF4B4
:104AF0002C430CF1020C5C4D45F82C405B4CA56836
:104B0000D44325EA02064F6817F4801F01D042EA19
:104B10000506564DAE60ED6804EA05064F6817F4C9
:104B2000001F01D042EA0506504DEE606D6804EAB0
:104B300005064F6817F4003F01D042EA05064B4DC9
:104B40006E602D682C404E6816F4803F01D042EA1A
:104B50000504464A146001330A6832FA03F400F08F
:104B600081804FF0010C0CFA03FC1CEA0202F2D027
:104B70004C6804F00304013C012C81D94C6804F01A
:104B8000030EBEF1030F8FD04C6804F00304032C16
:104B90000CD0C4685D004FF0030C0CFA05FC24EA4D
:104BA0000C0C8C68AC4044EA0C04C4604C6804F003
:104BB0000304022C81D004684FEA430E4FF0030C2B
:104BC0000CFA0EFC24EA0C0C4C6804F0030404FA02
:104BD0000EF444EA0C0404604C6814F4403FBAD06C
:104BE000234C256E45F001052566246E04F0010472
:104BF0000194019C4FEA930C0CF102051A4C54F8F5
:104C0000255003F0030E4FEA8E0E0F2404FA0EF423
:104C100025EA0405B0F1904F3FF467AF154CA04270
:104C200016D004F58064A04214D004F58064A0423C
:104C300012D004F58064A04210D004F58064A04234
:104C40000ED004F58064A0423FF44DAF07244DE739
:104C500001244BE7022449E7032447E7042445E7FE
:104C6000052443E703B0F0BD00000140000401400B
:104C700000100240000400480AB18161704781625F
:104C80007047436901EA030221EA030141EA024154
:104C900081617047034690F84120D2B2202A23D187
:104CA00090F84020012A21D0012280F840202422BF
:104CB00080F841200068026822F001020260186852
:104CC000026822F480520260186802681143016091
:104CD00019680A6842F001020A60202283F8412024
:104CE000002083F840007047022070470220704780
:104CF000034690F84120D2B2202A21D190F84020DA
:104D0000012A1FD0012280F84020242280F841206F
:104D10000068026822F0010202601868026822F44A
:104D2000706242EA0122026019680A6842F00102D8
:104D30000A60202283F84120002083F84000704759
:104D4000022070470220704700285FD010B504464B
:104D500090F84130002B48D0242384F84130226859
:104D6000136823F0010313606368226823F0706303
:104D700013612268936823F400439360E368012B76
:104D800038D0A368226843F404439360E368022B9D
:104D900036D02268536823F4006353602268536856
:104DA00043F0007343F4004353602268D36823F454
:104DB0000043D360236962691343A169226843EA0F
:104DC0000123D360E369216A22680B4313602268E0
:104DD000136843F00103136000206064202384F80B
:104DE0004130206384F8420010BD80F8403003F069
:104DF0006BFFB1E7A368226843F400439360C5E703
:104E00002268536843F400635360C7E7012070478A
:104E1000024B186800F4C060704700BF007000408B
:104E2000B0F5007F0FD01F4B1B6803F4C063B3F5D0
:104E3000806F34D01B4A136823F4C06343F480634B
:104E4000136000207047174B1B6803F4C063B3F571
:104E5000007F20D0134A136823F4C06343F4007327
:104E60001360114B1B68322202FB03F30F4AA2FBB3
:104E700003239B0C013300E0013B0A4A526912F400
:104E8000806F01D0002BF7D1064B5B6913F4806F64
:104E900003D1002070470020704703207047002096
:104EA000704700BF00700040D001002083DE1B432C
:104EB000F8B504460D46594BDB6813F0030F17D0C5
:104EC000564BDB6803F003030268934201D00126CE
:104ED00016E0002A00F09F80504BDB68C3F30213FA
:104EE00001334268934201D0012609E000261BE00D
:104EF0000368022B58D0032B5DD0012B02D0012672
:104F00003046F8BD454A126812F0020F5FD04348A0
:104F1000C26822F073026168013943EA0113134346
:104F2000C3600026002EEBD13C4A136823F0806357
:104F3000136002F0A7FF0746384B1B6813F0006FA1
:104F400005D002F09FFFC31B022BF5D90326002ECC
:104F5000D6D1002D3DD131490B6923F41F3323F401
:104F60004073A068E2681209520442EA0022134327
:104F70000B612A4A136843F08063136002F082FFDA
:104F80000546264B1B6813F0006F05D102F07AFF2F
:104F9000401B0228F5D90326002EB1D11F4A136900
:104FA000A1690B431361ABE71C4A126812F4806FCE
:104FB000ADD10126A4E7194A126812F4003FA6D128
:104FC000164A126812F4802FA1D1012698E7012613
:104FD000A8E7012D0FD01148026922F0C06222F427
:104FE000FE42A16863695B08013B5B0643EA01235B
:104FF0001A430261BDE70948026922F4C00222F4A3
:10500000FE42A16823695B08013B5B0543EA01237B
:105010001A430261ADE7012672E700BF00100240AB
:10502000F8B504460D46504BDB6813F0030F17D05C
:105030004D4BDB6803F003030268934201D0012665
:1050400016E0002A00F08D80474BDB68C3F30213A3
:1050500001334268934201D0012609E000261BE09B
:105060000368022B58D0032B5DD0012B02D0012600
:105070003046F8BD3C4A126812F0020F5FD03A4841
:10508000C26822F073026168013943EA01131343D5
:10509000C3600026002EEBD1334A136823F08053FF
:1050A000136002F0EFFE07462F4B1B6813F0005F02
:1050B00005D002F0E7FEC31B022BF5D90326002E14
:1050C000D6D1002D3DD128494B6923F41F3323F459
:1050D0004073A068E2681209520442EA00221343B6
:1050E0004B61214A136843F08053136002F0CAFEFB
:1050F00005461D4B1B6813F0005F05D102F0C2FE90
:10510000401B0228F5D90326002EB1D1164A536957
:1051100061690B435361ABE7134A126812F4806F65
:10512000ADD10126A4E7104A126812F4003FA6D1BF
:105130000D4A126812F4802FA1D1012698E70126AA
:10514000A8E70948426922F0C06222F4FE42A16841
:1051500023695B08013B5B0643EA01231A43426172
:10516000BFE7012684E700BF001002402DE9F041AF
:1051700082B00446036813F4006F33D0436EB3F576
:10518000000F1FD00CD823B3B3F5800F05D1002139
:105190002030FFF745FF064620E001273E4623E08A
:1051A000B3F5400F0BD10026604AD2F8883023F4C3
:1051B0004003616E0B43C2F88830002714E00127DA
:1051C0003E4611E0594AD36843F48033D360002649
:1051D000EAE700210430FFF76BFE0646002EE3D01D
:1051E000374601E000273E46236813F4805F30D045
:1051F000A36EB3F1007F1FD00DD81BB3B3F1807F36
:1052000006D1002104F12000FFF70AFF064605E061
:1052100001273E461DE0B3F1407F0AD1C6B9434A9B
:10522000D2F8883023F04073A16E0B43C2F8883067
:105230000FE001273E460CE03C4AD36843F480333C
:10524000D360EBE70021201DFFF732FE0646E5E7BD
:105250003746236813F4003F71D0344B9B6D13F035
:10526000805F4ED1314B9A6D42F080529A659B6DB2
:1052700003F080530193019B4FF001082C4A1368FF
:1052800043F48073136002F0FDFD0546284B1B6854
:1052900013F4807F05D102F0F5FD401B0228F5D9FB
:1052A0000326002E46D1214BD3F8903013F44073DF
:1052B00016D0D4F884209A4212D01C4AD2F89030EA
:1052C00023F44073D2F8901041F48031C2F890106A
:1052D000D2F8901021F48031C2F89010C2F89030CA
:1052E00013F0010F10D1002E40F027810F4AD2F8A1
:1052F000903023F44073D4F884100B43C2F89030FC
:1053000019E04FF00008B9E702F0BCFD0546074B75
:10531000D3F8903013F0020FE5D102F0B3FD401B3B
:1053200041F288339842F2D90326DCE700100240AC
:10533000007000403746B8F1000F40F0008123684C
:1053400013F0010F08D09D4AD2F8883023F00303F0
:10535000A16B0B43C2F88830236813F0020F08D00A
:10536000964AD2F8883023F00C03E16B0B43C2F865
:105370008830236813F0040F08D0904AD2F88830A0
:1053800023F03003216C0B43C2F88830236813F0FC
:10539000080F08D0894AD2F8883023F0C003616C26
:1053A0000B43C2F88830236813F0100F08D0834AEB
:1053B000D2F8883023F44073A16C0B43C2F88830D4
:1053C000236813F0200F08D07C4AD2F8883023F4E9
:1053D0004063E16C0B43C2F88830236813F4007F0C
:1053E00008D0764AD2F8883023F44023E16D0B438D
:1053F000C2F88830236813F4806F08D06F4AD2F85F
:10540000883023F44013216E0B43C2F888302368A0
:1054100013F0400F08D0694AD2F8883023F4405383
:10542000216D0B43C2F88830236813F0800F08D039
:10543000624AD2F8883023F44043616D0B43C2F8CE
:105440008830236813F4807F08D05C4AD2F8883013
:1054500023F44033A16D0B43C2F88830236813F462
:10546000005F0FD0554AD2F8883023F04063E16ED8
:105470000B43C2F88830E36EB3F1006F65D0B3F12F
:10548000806F67D0236813F4002F0FD04B4AD2F8F7
:10549000883023F04063216F0B43C2F88830236FBC
:1054A000B3F1006F5ED0B3F1806F60D0236813F466
:1054B000802F0FD0414AD2F8883023F04063616FCB
:1054C0000B43C2F88830636FB3F1006F57D0B3F16C
:1054D000806F59D0236813F4804F0FD0374AD2F829
:1054E000883023F04053A16F0B43C2F88830A36F7C
:1054F000B3F1805F50D0B3F1005F55D0236813F44F
:10550000004F08D02D4AD2F8883023F08043E16F55
:105510000B43C2F88830236813F4803F09D0274A30
:10552000D2F8883023F00043D4F880100B43C2F83F
:105530008830384602B0BDE8F0813746FBE61F4AA6
:10554000936D23F080539365F9E6D36843F4801399
:10555000D36097E70121201DFFF7AAFC002891D016
:1055600007468FE7D36843F48013D3609EE7012199
:10557000201DFFF79DFC002898D0074696E7D368CA
:1055800043F48013D360A5E70121201DFFF790FCB1
:1055900000289FD007469DE70221201DFFF788FCC9
:1055A0000028ABD00746A9E7022104F12000FFF74D
:1055B00037FD0028A2D00746A0E700BF0010024038
:1055C00030B583B00446204B9B6D13F0805F0BD049
:1055D000FFF71EFCB0F5007F17D0802C1FD82DD010
:1055E000702C2DD000211BE0174DAB6D43F0805384
:1055F000AB65AB6D03F080530193019BFFF708FC93
:10560000AB6D23F08053AB65E4E7802C03D9A02C6D
:1056100003D9022104E0002102E0012100E003217E
:105620000A4A136823F007030B431360136803F05F
:1056300007038B4206D1002003B030BD0221EFE703
:105640000121EDE70120F7E70010024000200240B1
:10565000284A9368D26802F0030213F00C030AD0C0
:105660000C2B06D0042B1FD0082B20D00020024684
:1056700010E0012AF6D11F4A126812F0080F0CD16F
:105680001C4AD2F89420C2F303221B4951F822206D
:1056900043B100200C2B0DD07047164A1268C2F39C
:1056A0000312F2E71046F5E714480022F2E7144827
:1056B0000022EFE70F4BDB6803F00303022B16D049
:1056C000032B00D10E4A0B49CB68C3F302130133FD
:1056D000C868C0F3062002FB00F0B0FBF3F0CB6813
:1056E000C3F3416301335B00B0FBF3F0D4E7034A3B
:1056F000E9E700BF00100240B8A200080024F4004F
:1057000000127A00002800F0F182F0B583B0044660
:10571000964B9D6805F00C05DE6806F003060368ED
:1057200013F0100F5AD0E5B10C2D18D0A369002B3F
:1057300000F0BB808D4A136843F00103136002F050
:10574000A1FB0746894B1B6813F0020F40F09A80BB
:1057500002F098FBC01B0228F4D90320D1E2012EED
:10576000E4D1824B1B6813F0020F03D0A369002B16
:1057700000F0BE82206A7D4B1B6813F0080F5BD0DF
:105780007A4B1B6803F0F00398425CD8774B1A6899
:1057900042F008021A601A6822F0F002216A0A43F5
:1057A0001A605A6822F47F42E16942EA01225A6093
:1057B000002D60D0FFF74CFF6C4B9B68C3F30313C5
:1057C0006B4AD35C03F01F03D8406A4B18606A4BE6
:1057D000186802F00DFB002840F09382236813F054
:1057E000010F00F08180082D75D00C2D71D06368F9
:1057F000B3F5803F00F09780B3F5A02F00F09980BB
:105800005A4B1A6822F480321A601A6822F48022F5
:105810001A606368002B00F0998002F033FB0746A2
:10582000524B1B6813F4003F5ED102F02BFBC01BF0
:105830006428F5D9032064E24C4BD3F894301B095B
:1058400003F0F003A0E7FFF7BBFE002840F0528210
:10585000464B1A6842F008021A601A6822F0F002F9
:10586000216A0A431A605A6822F47F42E16942EAD7
:1058700001225A609EE7206AFFF7A2FE002899D015
:1058800001203EE2394B1A6842F008021A601A6899
:1058900022F0F002216A0A431A605A6822F47F4219
:1058A000E16942EA01225A6098E7304A136823F01E
:1058B0000103136002F0E6FA07462C4B1B6813F055
:1058C000020F8BD002F0DEFAC01B0228F5D90320AC
:1058D00017E2032E8BD1254B1B6813F4003F03D036
:1058E0006368002B00F00882236813F0020F58D081
:1058F000042D45D00C2D41D0E368002B77D01B4AF6
:10590000136843F48073136002F0BCFA0646174B29
:105910001B6813F4806F61D102F0B4FA801B022877
:10592000F5D90320EDE1114A136843F48033136085
:105930006FE703F18043A3F53C331A6842F48022F9
:105940001A601A6842F480321A6062E702F09AFA2A
:105950000746064B1B6813F4003FC5D002F092FACD
:10596000C01B6428F5D90320CBE100BF0010024022
:10597000F0A20008D0010020CC010020022EBBD1F3
:10598000A34B1B6813F4806F03D0E368002B00F077
:10599000B5819F4A536823F0F853216943EA0163B4
:1059A0005360236813F0080F4CD063699BB3984A87
:1059B000D2F8943043F00103C2F8943002F062FA56
:1059C0000646934BD3F8943013F0020F3AD102F00D
:1059D00059FA801B0228F4D9032092E18C4A5368BB
:1059E00023F0F853216943EA01635360D9E7884AF9
:1059F000136823F48073136002F044FA0646844B64
:105A00001B6813F4806FCCD002F03CFA801B022894
:105A1000F5D9032075E17E4AD2F8943023F00103D2
:105A2000C2F8943002F02EFA0646794BD3F894303F
:105A300013F0020F06D002F025FA801B0228F4D9D9
:105A400003205EE1236813F0040F7AD0704B9B6D46
:105A500013F0805F36D16E4B9A6D42F080529A659A
:105A60009B6D03F080530193019B0126694B1B68DA
:105A700013F4807F28D0A368012B39D0052B3FD0A9
:105A8000634BD3F8902022F00102C3F89020D3F8A2
:105A9000902022F00402C3F89020A368002B3DD090
:105AA00002F0F0F907465A4BD3F8903013F0020F8A
:105AB00046D102F0E7F9C01B41F288339842F2D98F
:105AC00003201EE10026D1E7524A136843F4807395
:105AD000136002F0D7F907464E4B1B6813F4807F22
